{
  "contractName": "DonationTracker",
  "abi": [
    {
      "inputs": [],
      "payable": false,
      "stateMutability": "nonpayable",
      "type": "constructor"
    },
    {
      "anonymous": false,
      "inputs": [
        {
          "indexed": true,
          "internalType": "address",
          "name": "donor",
          "type": "address"
        },
        {
          "indexed": false,
          "internalType": "uint256",
          "name": "amount",
          "type": "uint256"
        },
        {
          "indexed": false,
          "internalType": "string",
          "name": "message",
          "type": "string"
        }
      ],
      "name": "DonationReceived",
      "type": "event"
    },
    {
      "constant": true,
      "inputs": [],
      "name": "donationTarget",
      "outputs": [
        {
          "internalType": "uint256",
          "name": "",
          "type": "uint256"
        }
      ],
      "payable": false,
      "stateMutability": "view",
      "type": "function"
    },
    {
      "constant": true,
      "inputs": [
        {
          "internalType": "address",
          "name": "",
          "type": "address"
        },
        {
          "internalType": "uint256",
          "name": "",
          "type": "uint256"
        }
      ],
      "name": "donorDonationHistory",
      "outputs": [
        {
          "internalType": "uint256",
          "name": "",
          "type": "uint256"
        }
      ],
      "payable": false,
      "stateMutability": "view",
      "type": "function"
    },
    {
      "constant": true,
      "inputs": [],
      "name": "owner",
      "outputs": [
        {
          "internalType": "address",
          "name": "",
          "type": "address"
        }
      ],
      "payable": false,
      "stateMutability": "view",
      "type": "function"
    },
    {
      "constant": true,
      "inputs": [],
      "name": "totalDonations",
      "outputs": [
        {
          "internalType": "uint256",
          "name": "",
          "type": "uint256"
        }
      ],
      "payable": false,
      "stateMutability": "view",
      "type": "function"
    },
    {
      "constant": false,
      "inputs": [],
      "name": "donate",
      "outputs": [],
      "payable": true,
      "stateMutability": "payable",
      "type": "function"
    },
    {
      "constant": false,
      "inputs": [
        {
          "internalType": "string",
          "name": "_message",
          "type": "string"
        }
      ],
      "name": "donateWithMessage",
      "outputs": [],
      "payable": true,
      "stateMutability": "payable",
      "type": "function"
    },
    {
      "constant": true,
      "inputs": [],
      "name": "getContractBalance",
      "outputs": [
        {
          "internalType": "uint256",
          "name": "",
          "type": "uint256"
        }
      ],
      "payable": false,
      "stateMutability": "view",
      "type": "function"
    },
    {
      "constant": true,
      "inputs": [],
      "name": "getDonorDonationHistory",
      "outputs": [
        {
          "internalType": "uint256[]",
          "name": "",
          "type": "uint256[]"
        }
      ],
      "payable": false,
      "stateMutability": "view",
      "type": "function"
    },
    {
      "constant": false,
      "inputs": [],
      "name": "withdrawFunds",
      "outputs": [],
      "payable": false,
      "stateMutability": "nonpayable",
      "type": "function"
    },
    {
      "constant": false,
      "inputs": [
        {
          "internalType": "uint256",
          "name": "_newDonationTarget",
          "type": "uint256"
        }
      ],
      "name": "setDonationTarget",
      "outputs": [],
      "payable": false,
      "stateMutability": "nonpayable",
      "type": "function"
    }
  ],
  "bytecode": "0x608060405234801561001057600080fd5b50336000806101000a81548173ffffffffffffffffffffffffffffffffffffffff021916908373ffffffffffffffffffffffffffffffffffffffff16021790555061094d806100606000396000f3fe6080604052600436106100915760003560e01c8063ca766d9d11610059578063ca766d9d146101c9578063de2ed89314610204578063ed88c68e1461022f578063f59fcfa914610239578063fffdbadd146102a557610091565b806314d29f0d1461009657806324600fc3146101055780636f9fb98a1461011c5780638da5cb5b14610147578063ad179a521461019e575b600080fd5b3480156100a257600080fd5b506100ef600480360360408110156100b957600080fd5b81019080803573ffffffffffffffffffffffffffffffffffffffff1690602001909291908035906020019092919050505061031e565b6040518082815260200191505060405180910390f35b34801561011157600080fd5b5061011a61034c565b005b34801561012857600080fd5b50610131610493565b6040518082815260200191505060405180910390f35b34801561015357600080fd5b5061015c61049b565b604051808273ffffffffffffffffffffffffffffffffffffffff1673ffffffffffffffffffffffffffffffffffffffff16815260200191505060405180910390f35b3480156101aa57600080fd5b506101b36104c0565b6040518082815260200191505060405180910390f35b3480156101d557600080fd5b50610202600480360360208110156101ec57600080fd5b81019080803590602001909291905050506104c6565b005b34801561021057600080fd5b50610219610575565b6040518082815260200191505060405180910390f35b61023761057b565b005b34801561024557600080fd5b5061024e6106b1565b6040518080602001828103825283818151815260200191508051906020019060200280838360005b83811015610291578082015181840152602081019050610276565b505050509050019250505060405180910390f35b61031c600480360360208110156102bb57600080fd5b81019080803590602001906401000000008111156102d857600080fd5b8201836020820111156102ea57600080fd5b8035906020019184600183028401116401000000008311171561030c57600080fd5b9091929391929390505050610746565b005b6003602052816000526040600020818154811061033757fe5b90600052602060002001600091509150505481565b6000809054906101000a900473ffffffffffffffffffffffffffffffffffffffff1673ffffffffffffffffffffffffffffffffffffffff163373ffffffffffffffffffffffffffffffffffffffff16146103f1576040517f08c379a00000000000000000000000000000000000000000000000000000000081526004018080602001828103825260258152602001806108ad6025913960400191505060405180910390fd5b6000471161044a576040517f08c379a00000000000000000000000000000000000000000000000000000000081526004018080602001828103825260218152602001806108f86021913960400191505060405180910390fd5b3373ffffffffffffffffffffffffffffffffffffffff166108fc479081150290604051600060405180830381858888f19350505050158015610490573d6000803e3d6000fd5b50565b600047905090565b6000809054906101000a900473ffffffffffffffffffffffffffffffffffffffff1681565b60025481565b6000809054906101000a900473ffffffffffffffffffffffffffffffffffffffff1673ffffffffffffffffffffffffffffffffffffffff163373ffffffffffffffffffffffffffffffffffffffff161461056b576040517f08c379a00000000000000000000000000000000000000000000000000000000081526004018080602001828103825260258152602001806108ad6025913960400191505060405180910390fd5b8060028190555050565b60015481565b600034116105d4576040517f08c379a00000000000000000000000000000000000000000000000000000000081526004018080602001828103825260268152602001806108d26026913960400191505060405180910390fd5b34600160008282540192505081905550600360003373ffffffffffffffffffffffffffffffffffffffff1673ffffffffffffffffffffffffffffffffffffffff1681526020019081526020016000203490806001815401808255809150509060018203906000526020600020016000909192909190915055503373ffffffffffffffffffffffffffffffffffffffff167ffa5658cbb5d60363acba0d281bddcf21cc9e7ea6053267531b4cdc36d5df7a8a3460405180828152602001806020018281038252600081526020016020019250505060405180910390a2565b6060600360003373ffffffffffffffffffffffffffffffffffffffff1673ffffffffffffffffffffffffffffffffffffffff16815260200190815260200160002080548060200260200160405190810160405280929190818152602001828054801561073c57602002820191906000526020600020905b815481526020019060010190808311610728575b5050505050905090565b6000341161079f576040517f08c379a00000000000000000000000000000000000000000000000000000000081526004018080602001828103825260268152602001806108d26026913960400191505060405180910390fd5b34600160008282540192505081905550600360003373ffffffffffffffffffffffffffffffffffffffff1673ffffffffffffffffffffffffffffffffffffffff1681526020019081526020016000203490806001815401808255809150509060018203906000526020600020016000909192909190915055503373ffffffffffffffffffffffffffffffffffffffff167ffa5658cbb5d60363acba0d281bddcf21cc9e7ea6053267531b4cdc36d5df7a8a34848460405180848152602001806020018281038252848482818152602001925080828437600081840152601f19601f82011690508083019250505094505050505060405180910390a26108a433346108a8565b5050565b505056fe4f6e6c7920746865206f776e65722063616e2063616c6c20746869732066756e6374696f6e446f6e6174696f6e20616d6f756e74206d7573742062652067726561746572207468616e20304e6f2066756e647320617661696c61626c6520666f72207769746864726177616ca265627a7a723158202b46f0ce3bca5a3b773fb9050bcca9ba12cce94334df12e672baf5d69acd028764736f6c63430005100032",
  "source": "\r\npragma solidity ^0.5.16;\r\n\r\ncontract DonationTracker {\r\n    address public owner;\r\n    uint256 public totalDonations;\r\n    uint256 public donationTarget;\r\n\r\n    mapping(address => uint256[]) public donorDonationHistory;\r\n\r\n    event DonationReceived(address indexed donor, uint256 amount, string message);\r\n\r\n    modifier onlyOwner() {\r\n        require(msg.sender == owner, \"Only the owner can call this function\");\r\n        _;\r\n    }\r\n\r\n    constructor() public {\r\n        owner = msg.sender;\r\n    }\r\n\r\n    function donate() external payable {\r\n        require(msg.value > 0, \"Donation amount must be greater than 0\");\r\n\r\n        totalDonations += msg.value;\r\n        donorDonationHistory[msg.sender].push(msg.value);\r\n\r\n        emit DonationReceived(msg.sender, msg.value, \"\");\r\n    }\r\n\r\n    function donateWithMessage(string calldata _message) external payable {\r\n        require(msg.value > 0, \"Donation amount must be greater than 0\");\r\n\r\n        totalDonations += msg.value;\r\n        donorDonationHistory[msg.sender].push(msg.value);\r\n\r\n        emit DonationReceived(msg.sender, msg.value, _message);\r\n\r\n        // Check for rewards eligibility\r\n        checkRewardsEligibility(msg.sender, msg.value);\r\n    }\r\n\r\n    function getContractBalance() external view returns (uint256) {\r\n        return address(this).balance;\r\n    }\r\n\r\n    function getDonorDonationHistory() external view returns (uint256[] memory) {\r\n        return donorDonationHistory[msg.sender];\r\n    }\r\n\r\n    function withdrawFunds() external onlyOwner {\r\n        require(address(this).balance > 0, \"No funds available for withdrawal\");\r\n\r\n        msg.sender.transfer(address(this).balance);\r\n    }\r\n\r\n    function setDonationTarget(uint256 _newDonationTarget) external onlyOwner {\r\n        donationTarget = _newDonationTarget;\r\n    }\r\n\r\n    function checkRewardsEligibility(address _donor, uint256 _amount) internal {\r\n        \r\n    }\r\n}\r\n",
  "sourcePath": "E:\\admin\\DonationTracker\\contracts\\DonationTracker.sol",
  "compiler": {
    "name": "solc",
    "version": "0.5.16+commit.9c3226ce.Emscripten.clang"
  },
  "schemaVersion": "3.4.16",
  "updatedAt": "2024-02-04T01:18:41.926Z",
  "networkType": "ethereum",
  "devdoc": {
    "methods": {}
  },
  "userdoc": {
    "methods": {}
  }
}